:020000040000FA
:10000000600400206D020000710200007302000015
:100010007502000077020000790200000000000075
:100020000000000000000000000000007B02000053
:100030007D020000000000007F020000810200003D
:10004000830200008302000083020000830200009C
:10005000830200008302000083020000830200008C
:10006000830200008302000083020000830200007C
:10007000830200008302000083020000830200006C
:10008000830200008302000083020000830200005C
:10009000830200008302000083020000830200004C
:1000A000830200008302000083020000830200003C
:1000B000830200008302000083020000830200002C
:1000C000830200008302000083020000830200001C
:1000D000830200008302000083020000830200000C
:1000E00083020000830200008302000083020000FC
:1000F00083020000830200008302000083020000EC
:1001000083020000830200008302000083020000DB
:1001100083020000830200008302000083020000CB
:1001200083020000830200008302000083020000BB
:1001300083020000830200008302000083020000AB
:1001400000000000000000000000000000000000AF
:10015000830200008302000083020000830200008B
:10016000000000000000000000000000000000008F
:10017000000000000000000000000000000000007F
:10018000000000000000000000000000000000006F
:10019000000000000000000000000000000000005F
:1001A000000000000000000000000000000000004F
:1001B000830200008302000083020000830200002B
:1001C000830200008302000083020000830200001B
:1001D000830200008302000083020000830200000B
:1001E00083020000830200008302000083020000FB
:1001F00083020000830200008302000083020000EB
:10020000830200008302000083020000000000005F
:1002100083020000830200008302000083020000CA
:1002200083020000830200008302000083020000BA
:1002300083020000830200008302000083020000AA
:10024000830200008302000083020000830200009A
:10025000830200008302000083020000830200008A
:1002600083020000830200008302000000F00AB84D
:10027000FEE7FEE7FEE7FEE7FEE7FEE7FEE7FEE756
:10028000FEE7FEE700F002F800F02CF80AA090E884
:10029000000C82448344AAF10107DA4501D100F041
:1002A00021F8AFF2090EBAE80F0013F0010F18BFE2
:1002B000FB1A43F001031847D4070000E4070000CD
:1002C0000023002400250026103A28BF78C1FBD85F
:1002D000520728BF30C148BF0B6070471FB51FBD14
:1002E00010B510BD00F029F81146FFF7F7FF00F038
:1002F00091FA00F047F803B4FFF7F2FF03BC00F0F7
:100300004FF8000072B6704762B67047EFF3108086
:1003100072B6704780F31088704730BF704702484C
:100320000249014A024B704760000020600400202F
:1003300060000020704770477047754600F02CF849
:10034000AE4605006946534620F00700854618B0C2
:1003500020B5FFF7E4FFBDE820404FF000064FF066
:1003600000074FF000084FF0000B21F00701AC46EA
:10037000ACE8C009ACE8C009ACE8C009ACE8C00909
:100380008D46704710B50446AFF300802046BDE8A7
:100390001040FFF7B0BF0000004870470000002089
:1003A00001491820ABBEFEE726000200704700BFDF
:1003B000401E0028FCD1704710B5002404E0002145
:1003C000012000F001FA641CB4F5FC7FF7DB00218A
:1003D000084600F0A3F910BD08B54B48006840F08E
:1003E0000100494908604948006840F00100484957
:1003F000C1F808014548006800904648006840F090
:10040000C0004449086043482030006840F02C0098
:100410004049203108600846006820F0C0000860AC
:100420003D48006840F0EC003B4908603A48103015
:1004300000683A4908403A49084437491031086091
:100440000846006820F07F400860081F006820F020
:10045000EC00091F08603348406820F00200314971
:1004600048600846406820F0040048602E48006854
:1004700020F00F002C4908602A48006920F0FF0096
:10048000103028490861084600684FF6C07188435B
:10049000244908600846006820F0300008600846DB
:1004A000006820F00F00C01D08600846406840F05A
:1004B0000200486000204FF04021C1F80002009087
:1004C00002E00098401C009000980A28F9D3802090
:1004D000164908602121002000F076F9BF21002094
:1004E00000F072F90421002000F06EF914210020C0
:1004F00000F06AF92021002000F066F90C210020AC
:1005000000F062F908BD00001CE60F4008E10F4052
:1005100000E00F40004400401C450040FF000FFF7A
:100520000022200000800040C88F004000420040B0
:1005300070B505460021012000F046F900240AE0CC
:10054000A5F1200000EB8000064A1044015D012067
:1005500000F03AF9641C052CF2DB0021012000F0C8
:1005600033F970BDAC08000010B5044603E02078F4
:10057000FFF7DEFF641C20780028F8D110BD0000D2
:1005800070B504460A2C08DA60A0FFF7EDFF04F10D
:100590003001C8B2FFF7CCFFB6E0642C15DA5DA0DD
:1005A000FFF7E2FF0A2094FBF0F03030C5B2284696
:1005B000FFF7BEFF0A2094FBF0F100FB1140303042
:1005C000C5B22846FFF7B4FF9EE0B4F57A7F23DA80
:1005D00051A0FFF7C9FF642094FBF0F03030C5B2A2
:1005E0002846FFF7A5FF642094FBF0F100FB1140C3
:1005F00084B20A2094FBF0F03030C5B22846FFF7F1
:1006000097FF0A2094FBF0F100FB11403030C5B297
:100610002846FFF78DFF77E042F21070844233DA0C
:100620002020FFF785FF4FF47A7094FBF0F0303014
:10063000C5B22846FFF77CFF4FF47A7094FBF0F1C7
:1006400000FB114084B2642094FBF0F03030C5B25E
:100650002846FFF76DFF642094FBF0F100FB11408A
:1006600084B20A2094FBF0F03030C5B22846FFF780
:100670005FFF0A2094FBF0F100FB11403030C5B25F
:100680002846FFF755FF3FE042F2107094FBF0F070
:100690003030C5B22846FFF74BFF42F2107094FB92
:1006A000F0F100FB114084B24FF47A7094FBF0F04B
:1006B0003030C5B22846FFF73BFF4FF47A7094FB09
:1006C000F0F100FB114084B2642094FBF0F0303074
:1006D000C5B22846FFF72CFF642094FBF0F100FB25
:1006E000114084B20A2094FBF0F03030C5B22846A5
:1006F000FFF71EFF0A2094FBF0F100FB11403030A1
:10070000C5B22846FFF714FF70BD0000202020204E
:1007100000000000202020002020000070B50446CA
:100720000D460B2C01DC052D00DD70BDC4EBC400B3
:10073000C0B240F08001002000F046F845F04001D2
:10074000002000F041F800BFEFE700001D48006FF7
:1007500040F000401B4908670846006F40F4006005
:1007600008670846006E20F4F86008660846006EC8
:1007700000F5A86008660846006F20F07000086762
:100780000846006F08670846006F20F400500867AD
:100790000846006F40F0804008670846006F20F070
:1007A000FE5000F1E070086700BF0648006D00F0E1
:1007B00040000028F9D00348006F20F40060014990
:1007C0000867704700E00F4098B900BF0F4AD26831
:1007D00002F01002102AF9D000220D4B1A600B4AC9
:1007E000916000BF094AD26802F01002102AF9D0C5
:1007F0000BE000BF054AD26802F00202002AF9D0DD
:100800004022034B1A60014A91607047008000400B
:10081000004100400024FFF799FFFFF7DDFD00BF16
:10082000FFF7CAFD10A0FFF79FFE7F20FFF780FEB5
:1008300018E005210846FFF771FF1A2094FBF0F13C
:1008400000FB11404130C5B22846FFF771FE202061
:10085000FFF76EFE2046FFF793FE1348FFF7A7FD54
:10086000601C84B2E5E700002A2A2A2A2A2A2A2ABA
:100870002A2A2A2A2A204C43442054657374202AA9
:100880002A2A2A2A2A2A2A2A2A2A2A2A4C657474D7
:1008900065723A204E756D3A2D2D2D2D2D2D2D2062
:1008A0002D2D2D2D2000000035B70C00000000007C
:1008B0000000005F00000007000700147F147F1491
:1008C000242A7F2A122313086462364955225000D5
:1008D00005030000001C2241000041221C001408F6
:1008E0003E081408083E08080050300000080808B8
:1008F0000808006060000020100804023E514945CD
:100900003E00427F400042615149462141454B3102
:100910001814127F1027454545393C4A4949300192
:10092000710905033649494936064949291E0036E9
:10093000360000005636000008142241001414143A
:100940001414004122140802015109063249794168
:100950003E7E1111117E7F494949363E4141412277
:100960007F4141221C7F494949417F090909013ED4
:100970004149497A7F0808087F00417F41002040B3
:10098000413F017F081422417F404040407F020CDC
:10099000027F7F0408107F3E4141413E7F090909E3
:1009A000063E4151215E7F09192946464949493190
:1009B00001017F01013F4040403F1F2040201F3F79
:1009C0004038403F631408146307087008076151FA
:1009D000494543007F414100020408102000414185
:1009E0007F00040201020440404040400001020434
:1009F0000020545454787F484444383844444420B8
:100A0000384444487F3854545418087E0901020C75
:100A10005252523E7F0804047800447D400020403A
:100A2000443D007F1028440000417F40007C0418B2
:100A300004787C0804047838444444387C14141442
:100A400008081414187C7C080404084854545420E2
:100A5000043F4440203C4040207C1C2040201C3C63
:100A60004030403C44281028440C5050503C4464D2
:100A7000544C44000836410000007F00000041361D
:100A8000080010080810081F247C241F9C0A00007E
:0C0A90000000002060040000C002000014
:040000050000026D88
:00000001FF
