:020000040000FA
:10000000600400206D020000710200007302000015
:100010007502000077020000790200000000000075
:100020000000000000000000000000007B02000053
:100030007D020000000000007F020000810200003D
:10004000830200008302000083020000830200009C
:10005000830200008302000083020000830200008C
:10006000830200008302000083020000830200007C
:10007000830200008302000083020000830200006C
:10008000830200008302000083020000830200005C
:10009000830200008302000083020000830200004C
:1000A000830200008302000083020000830200003C
:1000B000830200008302000083020000830200002C
:1000C000830200008302000083020000830200001C
:1000D000830200008302000083020000830200000C
:1000E00083020000830200008302000083020000FC
:1000F00083020000830200008302000083020000EC
:1001000083020000830200008302000083020000DB
:1001100083020000830200008302000083020000CB
:1001200083020000830200008302000083020000BB
:1001300083020000830200008302000083020000AB
:1001400000000000000000000000000000000000AF
:10015000830200008302000083020000830200008B
:10016000000000000000000000000000000000008F
:10017000000000000000000000000000000000007F
:10018000000000000000000000000000000000006F
:10019000000000000000000000000000000000005F
:1001A000000000000000000000000000000000004F
:1001B000830200008302000083020000830200002B
:1001C000830200008302000083020000830200001B
:1001D000830200008302000083020000830200000B
:1001E00083020000830200008302000083020000FB
:1001F00083020000830200008302000083020000EB
:10020000830200008302000083020000000000005F
:1002100083020000830200008302000083020000CA
:1002200083020000830200008302000083020000BA
:1002300083020000830200008302000083020000AA
:10024000830200008302000083020000830200009A
:10025000830200008302000083020000830200008A
:1002600083020000830200008302000000F00AB84D
:10027000FEE7FEE7FEE7FEE7FEE7FEE7FEE7FEE756
:10028000FEE7FEE700F002F800F02CF80AA090E884
:10029000000C82448344AAF10107DA4501D100F041
:1002A00021F8AFF2090EBAE80F0013F0010F18BFE2
:1002B000FB1A43F001031847C8040000D8040000EB
:1002C0000023002400250026103A28BF78C1FBD85F
:1002D000520728BF30C148BF0B6070471FB51FBD14
:1002E00010B510BD00F029F81146FFF7F7FF00F038
:1002F00059F900F047F803B4FFF7F2FF03BC00F030
:100300004FF8000072B6704762B67047EFF3108086
:1003100072B6704780F31088704730BF704702484C
:100320000249014A024B704760000020600400202F
:1003300060000020704770477047754600F02CF849
:10034000AE4605006946534620F00700854618B0C2
:1003500020B5FFF7E4FFBDE820404FF000064FF066
:1003600000074FF000084FF0000B21F00701AC46EA
:10037000ACE8C009ACE8C009ACE8C009ACE8C00909
:100380008D46704710B50446AFF300802046BDE8A7
:100390001040FFF7B0BF0000004870470000002089
:1003A00001491820ABBEFEE726000200704700B5E9
:1003B0000246002100F046F840B2505405E0481CC7
:1003C000C1B200F03FF840B25054505C4B2802D00C
:1003D000505C2928F3D1481CC1B200F033F840B278
:1003E0005054481CC1B200F02DF840B25054481C83
:1003F000C1B20020505400BD08B50548009002E08D
:100400000098401E009000980028F9D108BD000017
:10041000BC310C0000BF0449896901F020010029AA
:10042000F9D101490860704700C0004000B502469C
:1004300003E01078FFF7EEFF521C10780028F8D187
:1004400000BD000000BF0548806900F010000028D2
:10045000F9D102480068C0B27047000000D00040E7
:1004600000BF0449896901F020010029F9D101493F
:100470000860704700D0004000B5024603E01078E5
:10048000FFF7EEFF521C10780028F8D100BD0000E5
:100490003C48006840F002003B49C1F804010846AE
:1004A000D0F8080140F00200C1F808010846D0F871
:1004B000040140F00100C1F804010846D0F8080129
:1004C00040F00100C1F808013048006B20F0010045
:1004D0002E49086311204862172088627020C86284
:1004E0000846006B40F20131084328490863284858
:1004F000006840F00300264908602548FC30006889
:1005000040F003002249FC3108602248006820F0D6
:10051000FF0011301F490860081F006820F0030029
:10052000091F08601C48006B20F001001A4908638D
:100530001A204862032088627020C8620846006B57
:1005400040F201310843144908631448006840F040
:100550000300124908601148FC30006840F00300B5
:100560000E49FC3108600E48006820F0FF00113091
:100570000B490860081F006820F00300091F08608D
:100580007047000004E10F4000E00F4000C0004051
:10059000204400402C45004000D000402054004042
:1005A0002C55004000B589B0FFF772FF55A0FFF74A
:1005B0003DFF54A0FFF760FF00BF5748806900F07F
:1005C00008000028F9D101A8FFF7F1FE01A8FFF704
:1005D0002DFFFFF711FF51A0FFF728FF4FA0FFF7F6
:1005E0004BFF00BF4C48806900F008000028F9D19B
:1005F00001A8FFF7DCFE01A8FFF718FFFFF7FCFEDC
:100600004CA0FFF713FF4BA0FFF736FF00BF424897
:10061000806900F008000028F9D101A8FFF7C7FEA3
:1006200001A8FFF703FFFFF7E7FE46A0FFF7FEFE76
:1006300044A0FFF721FF00BF3748806900F00800A1
:100640000028F9D101A8FFF7B2FE01A8FFF7EEFEDE
:10065000FFF7D2FE3EA0FFF7E9FE3DA0FFF70CFF3B
:1006600000BF2D48806900F008000028F9D101A8DA
:10067000FFF79DFE01A8FFF7D9FEFFF7BDFE37A0EB
:10068000FFF7D4FE35A0FFF7F7FE00BF22488069D0
:1006900000F008000028F9D101A8FFF788FE01A8A2
:1006A000FFF7C4FEFFF7A8FE2FA0FFF7BFFE2EA0A6
:1006B000FFF7E2FE00BF1848806900F0080000283C
:1006C000F9D101A8FFF773FEFFF796FE01A8FFF727
:1006D000ADFE28A0FFF7AAFE26A0FFF7CDFE00BFC3
:1006E0000D48806900F008000028F9D101A8FFF743
:1006F0005EFE01A8FFF79AFEFFF77EFE002009B01C
:1007000000BD000041542B4E414D453D43454353F0
:100710003434370D0A00000000D0004041542B55FE
:100720004152543D35373630302C302C312C0D0AA7
:100730000000000041542B505357443D30383234B0
:100740000D0A000041542B524F4C453D300D0A001C
:1007500041542B554152543F0D0A000041542B5037
:100760005357443F0D0A000041542B524F4C453F14
:100770000D0A000041542B4E414D453F0D0A00002B
:10078000900700000000002060040000C00200008C
:040000050000026D88
:00000001FF
