:020000040000FA
:10000000B00400206D0200007102000073020000C5
:100010007502000077020000790200000000000075
:100020000000000000000000000000007B02000053
:100030007D020000000000007F020000490A00006D
:1000400083020000830200007D04000031050000EF
:10005000830200008302000083020000830200008C
:10006000830200008302000083020000830200007C
:10007000830200008302000083020000830200006C
:10008000830200008302000083020000830200005C
:10009000830200008302000083020000830200004C
:1000A000830200008302000083020000830200003C
:1000B000830200008302000021060000830200008A
:1000C000830200008302000083020000830200001C
:1000D000830200008302000083020000830200000C
:1000E00083020000830200008302000083020000FC
:1000F00083020000830200008302000083020000EC
:1001000083020000830200008302000083020000DB
:1001100083020000830200008302000083020000CB
:1001200083020000830200008302000083020000BB
:1001300083020000830200008302000083020000AB
:1001400000000000000000000000000000000000AF
:10015000830200008302000083020000830200008B
:10016000000000000000000000000000000000008F
:10017000000000000000000000000000000000007F
:10018000000000000000000000000000000000006F
:10019000000000000000000000000000000000005F
:1001A000000000000000000000000000000000004F
:1001B000830200008302000083020000830200002B
:1001C000830200008302000083020000830200001B
:1001D000830200008302000083020000830200000B
:1001E00083020000830200008302000083020000FB
:1001F00083020000830200008302000083020000EB
:10020000830200008302000083020000000000005F
:1002100083020000830200008302000083020000CA
:1002200083020000830200008302000083020000BA
:1002300083020000830200008302000083020000AA
:10024000830200008302000083020000830200009A
:10025000830200008302000083020000830200008A
:1002600083020000830200008302000000F00AB84D
:10027000FEE7FEE7FEE7FEE7FEE7FEE7FEE7FEE756
:10028000FEE7FEE700F002F800F03AF80AA090E876
:10029000000C82448344AAF10107DA4501D100F041
:1002A0002FF8AFF2090EBAE80F0013F0010F18BFD4
:1002B000FB1A43F001031847640900008409000099
:1002C000103A24BF78C878C1FAD8520724BF30C882
:1002D00030C144BF04680C60704700000023002454
:1002E00000250026103A28BF78C1FBD8520728BF46
:1002F00030C148BF0B6070471FB51FBD10B510BDA2
:1003000000F029F81146FFF7F7FF00F0BBFB00F003
:1003100047F803B4FFF7F2FF03BC00F04FF800000A
:1003200072B6704762B67047EFF3108072B67047CE
:1003300080F31088704730BF704702480249014A75
:10034000024B7047B0000020B0040020B000002035
:10035000704770477047754600F02CF8AE460500B0
:100360006946534620F00700854618B020B5FFF7D0
:10037000E4FFBDE820404FF000064FF000074FF0CB
:1003800000084FF0000B21F00701AC46ACE8C009B3
:10039000ACE8C009ACE8C009ACE8C0098D467047BC
:1003A00010B50446AFF300802046BDE81040FFF7CB
:1003B000B0BF0000004870475000002001491820DD
:1003C000ABBEFEE7260002007047000008B51A48E1
:1003D000006840F002001949C1F808011648006899
:1003E00000901748006820F03F0015490860081D7C
:1003F000006800F07F40091D08601248006840F066
:100400003F00104908600F482030006820F03F008E
:100410000C49203108600A480C38006840F03F0061
:1004200007490C39086006482038006840F03F0052
:1004300003492039086008BD08E10F4000E00F4083
:10044000285500400054004008B50548009002E0DF
:100450000098401E009000980028F9D108BD0000C7
:10046000169F070008B54CF25030009002E000984B
:10047000401E009000980028F9D108BD10B5294809
:10048000006800F01000A8B110202649083108606B
:10049000FFF7E8FF2448006850B122481838006888
:1004A00000F0100020B14FF608502049086001E02C
:1004B00000F092F91B48006800F02000A8B120204D
:1004C000184908310860FFF7CDFF1748006850B1A0
:1004D00014481838006800F0200020B14DF6F250A2
:1004E0001249086001E000F077F90E48006800F05A
:1004F0004000A8B140200B4908310860FFF7B2FF67
:100500000948006850B107481838006800F04000FA
:1005100020B14CF2BA500549086001E000F05CF9E6
:1005200010BD0000146400403C0000204C0000207E
:1005300010B53448006800F00100A0B10120314935
:1005400008310860FFF78EFF2F48006848B12D483A
:100550001838006800F0010018B12C482C490860D8
:1005600001E000F039F92748006800F00200A0B16E
:100570000220244908310860FFF774FF2248006810
:1005800048B120481838006800F0020018B121482E
:100590001F49086001E000F01FF91A48006800F0E8
:1005A0000400A0B10420174908310860FFF75AFF82
:1005B0001548006848B113481838006800F0040076
:1005C00018B115481249086001E000F005F90D481E
:1005D000006800F00800A0B108200A49083108604E
:1005E000FFF740FF0848006848B10648183800681F
:1005F00000F0080018B109480549086001E000F062
:10060000EBF810BD147400403C000020447501005C
:100610004C0000208A4C010042280100A217010072
:100620001C48006800F00100B0B1012019490831F0
:1006300008601948006850B118480078401C00F064
:1006400001001649086000201349086004E01248C0
:100650000068401C104908600E48006800F0100057
:10066000B0B110200B49083108600B48006850B148
:100670000B480078401C00F0010009490860002088
:100680000549086004E004480068401C024908600D
:100690007047000014540240380000204000002041
:1006A0003C0000201D48006F40F000401B490867D7
:1006B0000846006F40F4006008670846006E20F4AA
:1006C000F86008660846006E00F5A86008660846EF
:1006D000006F20F0700008670846006F0867084642
:1006E000006F20F4005008670846006F40F080401B
:1006F00008670846006F20F0FE5000F1E0700867C0
:1007000000BF0648006D00F040000028F9D0034803
:10071000006F20F4006001490867704700E00F4057
:100720001A48006840F020001949C1F8080119482A
:1007300019490860081D006840F00E00091D086096
:100740001648006840F00E00144908601348203035
:10075000006820F00E001149203108600E48001F8B
:10076000006840F00E000C49091F08600A480C3070
:1007700000684FF6F071884307490C310860081F84
:10078000006820F00E00091F0860704708E10F4064
:1007900000E00F404B434F4C2055024000540240B4
:1007A00000210B4A11704FF0E0221161411E51618E
:1007B000002191610749096821F07F4141F0005112
:1007C000044A116007214FF0E022116170470000D8
:1007D0000000002020ED00E000204FF0E021086143
:1007E000704700002648006840F004002549C1F821
:1007F00008012548006820F0700023490860081DA2
:100800000068224908402049091D08602048006806
:1008100020F070001E4908601D482038006820F054
:1008200070001B492039086017480C38006840F0F8
:10083000700015490C39086015481C38006820F014
:10084000700013491C390860081D006840F07000F2
:10085000091D086070200E49091F08600C481038F7
:10086000006840F070000A491039086009480068C3
:1008700040F4800007490860042007490860704779
:1008800008E10F4000E00F4028650040FFFF00F046
:100890002064004000E400E000E100E02648006839
:1008A00040F008002549C1F808012548006820F0FB
:1008B0000F0023490860081D00686FF30F00091D31
:1008C00008602048006820F00F001E4908601D489D
:1008D0002038006820F00F001A49203908601848B5
:1008E0000C38006840F00F0015490C3908601548B5
:1008F0001C38006820F00F0012491C390860081DE0
:10090000006840F00F00091D08600F200D49091F05
:1009100008600C481038006840F00F000949103991
:1009200008600948006840F08040074908600820D6
:10093000064908607047000008E10F4000E00F40E2
:10094000287500402074004000E400E000E100E071
:1009500008B53748006840F020003649C1F8080162
:10096000334800680090344834490860081D006826
:1009700040F01100091D08603148006820F01100A6
:100980002F4908602E482030006820F011002C49C3
:10099000203108602948001F006840F011002749F5
:1009A000091F086025480C30006820F00F1023490B
:1009B0000C310860081F006820F01100091F086052
:1009C0001E481038006840F011001C4910390860BA
:1009D0001B48001D006820F011001949091D08601E
:1009E000081D006820F01100091D0860081D00683E
:1009F00020F01100091D0860112011491C31086008
:100A00000F481030006840F011000D4910310860A7
:100A10000C48006820F4600040F480000949086038
:100A20004FF080404FF0E021C1F8000108BD000008
:100A300008E10F4000E00F404B434F4C205502406F
:100A4000005402401CE400E00948006880F00800FF
:100A50000849C1F8FC0308480078401C00F03F003A
:100A60000549087005480978405C054908607047E9
:100A7000FC5302400050024000000020880B0000A0
:100A8000FC530040FFF74CFCFFF70CFEFFF760FF44
:100A9000FFF746FEFFF7A6FEFFF700FFFFF796FC05
:100AA000FFF740FC0020144908601449086021E069
:100AB0001148006801281AD10820114908600F4820
:100AC000006860B90F48006848B1042008600D490B
:100AD00009684809FFF764FE00200A4908600748D2
:100AE0000068012806D1084800F010F802E0022052
:100AF00003490860DCE700003C00002040000020C3
:100B0000FC5302404C0000200400002070B5044655
:100B1000002523E01948006810B11948006800B9A1
:100B200070BD14F8150010B9FFF756FE07E014F871
:100B30001510144A52F821104809FFF731FE00261B
:100B400003E0FFF781FC701CC6B204EB450040785F
:100B5000B042F6DCFFF740FE681CC5B204EB45006E
:100B600040780028D6D1002603E0FFF76DFC701C0A
:100B7000C6B20F2EF9DB00BFD2E700003C00002018
:100B800040000020C80B0000202326292C2F3134E0
:100B900036383A3B3D3E3E3F3F3F3E3E3D3B3A3896
:100BA0003634312F2C292623201D1A1714110F0C2F
:100BB0000A080605030202010101020203050608F4
:100BC0000A0C0F1114171A1DA2BA000045A6000046
:100BD00021940000D18B0000907C0000F96E000091
:100BE000DD620000515D000022530000104A000049
:100BF000E8450000483E00007C3700006E310000F0
:100C0000A82E00009129000008250000F422000011
:100C1000241F0000BE1B0000B71800003C0C0000A1
:100C20000000002050000000C00200008C0C0000FA
:100C30005000002060040000DC0200000000000002
:100C400010040F040E040F041004100410080F0405
:100C50000F040F0810041204120810040F040E04ED
:100C60000F041004100410080F040F0410040F04E4
:100C70000E0800000000000000000000000000005E
:0C0C800000000000000000000000000068
:040000050000026D88
:00000001FF
